:020000040800F2
:1000000000500020A5010008790C00087D0C0008B4
:10001000810C0008850C0008890C00080000000015
:100020000000000000000000000000008D0C00082F
:10003000910C000800000000950C0008990C0008C5
:10004000ED010008ED010008ED010008ED010008D8
:10005000ED010008ED010008ED010008ED010008C8
:10006000ED010008ED010008ED010008ED010008B8
:1000700089080008AD080008D5080008FD08000838
:10008000ED010008ED010008ED010008ED01000898
:10009000ED010008ED010008ED010008C10C0008A9
:1000A000ED010008ED010008ED010008ED01000878
:1000B000ED010008ED010008ED010008ED01000868
:1000C000ED010008ED010008ED010008ED01000858
:1000D000ED010008B90B0008C90B0008ED0100088C
:1000E000ED010008ED010008ED010008000000002E
:1000F0000000000000000000000000000000000000
:0C01000000000000000000005FF808F1A3
:10010C0010B5054C237833B9044B13B10448AFF345
:10011C0000800123237010BDD400002000000000DB
:10012C009C1C000808B5034B1BB103490348AFF3F3
:10013C00008008BD00000000D80000209C1C0008B6
:10014C0070B500250C4E0D4CA41BA410A54209D172
:10015C0001F09EFD00250A4E0A4CA41BA410A542DA
:10016C0005D170BD56F8253098470135EEE756F8A5
:10017C00253098470135F2E78C1D00088C1D0008CE
:10018C008C1D0008901D000803460244934200D1C8
:10019C00704703F8011BF9E7002103E00B4B5B5898
:1001AC00435004310A480B4B42189A42F6D30A4A80
:1001BC0002E0002342F8043B084B9A42F9D300F0CA
:1001CC0087FDFFF7BDFF00F0FBFA7047941D000898
:1001DC0000000020D4000020D400002014010020D6
:1001EC00FEE7000040F0BF60024B40F40030D860E6
:1001FC00704700BF00ED00E0F0B401240178C37833
:10020C0001F01F0294404E092BB90F4B203643F8D6
:10021C002640F0BC70470D4B4778DD688278E84388
:10022C000F23C0F30220C0F10405C34007FA05F503
:10023C0013402B43044A1B01DBB2114481F80033F9
:10024C0042F82640F0BC704700E100E000ED00E011
:10025C00054B1A685B69034004D0024214BF0120AD
:10026C00002070471846704700040140014B58614C
:10027C00704700BF00040140034A136803F03803C1
:10028C0018431060704700BF00200240044B1A68EE
:10029C0022F010021A601A6810431860704700BFF1
:1002AC00002002404FF41F000C4B0D4A196841F01E
:1002BC000101196059680A405A601A6822F0847268
:1002CC0022F480321A601A6822F480221A605A686A
:1002DC0022F4FE025A609860704700BF0010024082
:1002EC000000FFF80C4BB0F5803F1A6822F4803206
:1002FC001A601A6822F480221A6008D0B0F5802F98
:10030C0004D11A6842F4A0221A60704770471A6828
:10031C0042F480321A60704700100240002382B011
:10032C00094A0193136813F4003F019B03F1010385
:10033C000193019B02D1B3F5A06FF3D1024B186866
:10034C00C0F3404002B0704700100240034A5368AB
:10035C0023F47C1319430143516070470010024091
:10036C00014B1860704700BF60004242034A53685B
:10037C0023F0030318435060704700BF0010024085
:10038C00024B586800F00C00704700BF0010024090
:10039C00034A536823F0F00318435060704700BFC2
:1003AC0000100240034A536823F4E0631843506082
:1003BC00704700BF00100240034A536823F4605397
:1003CC0043EAC00050607047001002401E4A10B44F
:1003DC00536803F00C03082B0FD153685168C3F317
:1003EC008343C90303F1020328D55268920325D431
:1003FC00164A02FB03F3036001E0144B036012493D
:10040C00134A4C68C4F30314145DE34043604C6816
:10041C00C4F30224145D23FA04F484604C68C4F31E
:10042C00C224145DE340C360496810BCC1F3813140
:10043C000A44127CB3FBF2F303617047054A02FBDA
:10044C0003F30360DBE700BF0010024000127A00E8
:10045C000000002000093D00044A936919B923EA01
:10046C000000906170471843906170470010024083
:10047C00044AD36919B923EA0000D06170471843C4
:10048C00D0617047001002404309012B0BD0022BA6
:10049C00094B00F01F000CBF1B6A5B6A23FA00F0CB
:1004AC0000F001007047044B00F01F001B6823FA9A
:1004BC0000F000F001007047001002402DE9F041FF
:1004CC00CD78EB0648BF8B78098805F00F0748BF3D
:1004DC001F4311F0FF0F21D000234FF0010C4FF000
:1004EC000F08066802E00133082B16D00CFA03F251
:1004FC0032EA0104F7D19C0008FA04FE26EA0E0643
:10050C0007FA04F4282D46EA040632D0482D03F1EC
:10051C00010308BF0261082BE8D10660FF2924D92A
:10052C0008234FF0010C4FF00F08466802E001332E
:10053C00102B19D00CFA03F434EA0102F7D103F1B1
:10054C008042083A920008FA02FE26EA0E0607FAE2
:10055C0002F2282D46EA020609D0482D03F10103C8
:10056C0008BF0461102BE5D14660BDE8F081446101
:10057C00DDE74261B7E700BF29B94FF6FE720368A9
:10058C00134003607047036843F001030360704736
:10059C00C3004CBF034B044B1B68034214BF012028
:1005AC00002070470004024000000240C3004CBF12
:1005BC00014B024B5860704700040240000002409F
:1005CC00FFF7E6BFFFF7F2BF30B50D460446038ACE
:1005DC00CA889BB223F4405313438A8903828089CF
:1005EC00234B8988034028890B43698903430B43B8
:1005FC00A381A38A87B09BB223F44073134301A851
:10060C00A382FFF7E3FEDDE903311A482A6884422E
:10061C0008BF0B46A18903EB830309044CBF5200AE
:10062C00920003EB8303B3FBF2F364221248A58917
:10063C00A0FB03C1490902FB11332A044FEA011143
:10064C000AD41B013233A0FB0323C3F343130B4324
:10065C009BB2238107B030BDDA003232A0FB0232EC
:10066C00C2F3421242EA01039BB2238107B030BDB0
:10067C00F3E9FFFF003801401F85EB51838929B94D
:10068C0023F400531B041B0C8381704743F4005369
:10069C0083817047012310B401F01F04C1F3421190
:1006AC00012903FA04F30FD002290CBF10301430C7
:1006BC002AB9026810BC22EA03030360704702687F
:1006CC0010BC1343036070470C30F1E70123C1F3F6
:1006DC00421210B4012A01F01F0403FA04F314D0DF
:1006EC00022A0CBF028A828A1340028892B24BB152
:1006FC000123090A03FA01F10A4214BF184600202B
:10070C0010BC7047184610BC704782891340ECE748
:10071C0070B5161E07DD0C468D19AFF3008004F87A
:10072C00010BA542F9D1304670BD00BF70B5161E45
:10073C0007DD0C468D1914F8010B00F047FAA542A1
:10074C00F9D1304670BD00BF0C4A08B5136833B1FF
:10075C0069461844884209D81060184608BD0849F3
:10076C000B461160694618448842F5D900F032FBFB
:10077C000C224FF0FF330260184608BDF000002039
:10078C00180100204FF0FF30704700BF4FF40053AA
:10079C0000204B60704700BF01207047002070475D
:1007AC000022054B42545B791B0700D4704701466D
:1007BC00024800F0C3BB00BF08010020B81C0008B1
:1007CC0008B500F01BFA194B1949A3FB00439B0910
:1007DC00013BB3F1807F086000D3FEE7F0260721D0
:1007EC000025144A144C536084F82360134C956014
:1007FC00116000F02BF8124D6379284643F00F037B
:10080C00637100F089F863790E4ADB072A6402D51C
:10081C000D4800F007FC0026094D23889BB2002BE5
:10082C00FBD02846268000F053F9F6E7D34D621032
:10083C006C00002010E000E000ED00E0080100205A
:10084C0014000020AD070008D01C0008084B094A12
:10085C001860D36813F0807309D1D068064940F052
:10086C008070D0604B600B6843F001030B607047E5
:10087C0058000020F0ED00E0001000E008B520204A
:10088C00FFF79EFE012800D008BD04480021FFF7A9
:10089C0073FEBDE808402020FFF794BE1C00024008
:1008AC0008B54FF40070FFF78BFE012800D008BD8F
:1008BC0004480021FFF760FEBDE808404FF40070CB
:1008CC00FFF780BE3000024008B54FF40050FFF730
:1008DC0077FE012800D008BD04480021FFF74CFE2C
:1008EC00BDE808404FF40050FFF76CBE44000240D6
:1008FC0008B54FF40030FFF763FE012800D008BDA7
:10090C0004480021FFF738FEBDE808404FF40030E2
:10091C00FFF758BE5800024048B130B5056883B0A7
:10092C001DB1436B0BB1036A13B903B030BD7047F3
:10093C000446406B00F054FA2063206A00F050FA31
:10094C000023444AE061954284F82C306385E384AB
:10095C00238584F8243084F8383084F83930638760
:10096C0058D03D4B9D4263D01822032301A93B482C
:10097C008DF807208DF80630FFF7A0FD2368354A67
:10098C0093423FD0344A934204BF0823ADF804305D
:10099C00282301A931488DF80730FFF78FFD211D61
:1009AC002068FFF711FE012240F225512068FFF765
:1009BC0071FE4FF4E060FFF715FC2368254A934263
:1009CC001BD0254A934213D0012504F11400E57580
:1009DC00FFF712FC29462068FFF750FE23681D4ADA
:1009EC00934214D01C4A934204BF1D4B5C609CE79D
:1009FC00262206232275A375E6E7252205232275F8
:100A0C00A375E1E74FF48063ADF80430C0E7144BF5
:100A1C001C608AE7012144F20500FFF71DFD2368E5
:100A2C000C4A93420ED14FF40073ADF804309BE79F
:100A3C0001210520FFF710FD01214FF40030FFF7D5
:100A4C0017FDECE7044A934204BF0423ADF80430CD
:100A5C008AE700BF00380140004400400008014014
:100A6C00F8000020C38C70B50446006A0133B3FB58
:100A7C00F0F200FB1233228D934226D0638D0D468B
:100A8C0001339BB26385E269E38C9BB2D154E38C56
:100A9C00216A5A1CB2FBF1F301FB13239BB2E384D2
:100AAC0094F82C3003F0FF066BB9012240F2277149
:100ABC0084F82C202068FFF7EDFD3246206840F2C8
:100ACC002551FFF7E7FD284670BD4FF0FF35FAE7DB
:100ADC0090F83830D3B190F83930417EDBB25A1CE3
:100AEC00D2B2994280F8392010D800220121036C2F
:100AFC0010B580F838200446817680F8392013B17F
:100B0C00006B618F98470023638710BD704700BF4F
:100B1C0070B540F2255104460068FFF7D7FD90B13F
:100B2C00638F626B21689A422CD0012500208E883D
:100B3C00216B638F9BB25A1992B26287CE5484F8A0
:100B4C00385084F8390040F227712068FFF7BEFD59
:100B5C00B8B1228DE38C20689BB2934214D0E26929
:100B6C00238D9BB2D35C8380238D216A5A1CB2FBEC
:100B7C00F1F301FB13239BB22385638D013B9BB2E5
:100B8C00638570BD8B8870BD002240F22771FFF722
:100B9C0081FD012240F225512068FFF77BFD0023E7
:100BAC0084F82C30E3842385638570BD024B186870
:100BBC0008B1FFF7ADBF7047F8000020024B586832
:100BCC0008B1FFF7A5BF7047F800002038B50A4CF4
:100BDC000546206808B1037E53B9606808B1037EEE
:100BEC000BB9284638BD2946FFF73CFF284638BDCF
:100BFC002946FFF737FFF0E7F800002010B5FFF7A4
:100C0C0051FB4FF48030FFF76DFBFFF787FB01289A
:100C1C0001D0154810BD04461020FFF737FB022009
:100C2C00FFF72AFB0020FFF7B3FB0020FFF7C4FB04
:100C3C004FF48060FFF7B6FB4FF480304FF4601137
:100C4C00FFF784FB2046FFF78BFB3920FFF71CFCDA
:100C5C000028FAD00220FFF789FBFFF791FB082848
:100C6C00FBD1014810BD00BF0020A107704700BF99
:100C7C00FEE700BFFEE700BFFEE700BFFEE700BFD8
:100C8C00704700BF704700BF704700BF084A138809
:100C9C0001339BB2138053889BB2B3F57A7F03F177
:100CAC00010128BF002389B2518028BF53807047AF
:100CBC000801002008B54FF48070FFF7C9FA00B99D
:100CCC0008BD4FF48070BDE80840FFF7CFBA00BFF5
:100CDC0030B400244FF41F053A4B3B49186882B0DE
:100CEC0040F00100186058681A46014059601968B4
:100CFC0021F0847121F480311960196821F480216C
:100D0C001960596821F4FE0159609D6000940194AA
:100D1C00196841F48031196003E0009BB3F5A06FB2
:100D2C0009D0136803F400330193009B0133009343
:100D3C00019B002BF1D0234B1B6813F4003318BF1D
:100D4C0001230193019B012B06D04FF000621F4B36
:100D5C009A6002B030BC70471D491A4B08681A469D
:100D6C0040F010000860086820F007000860086870
:100D7C0040F0020008605968596059685960596818
:100D8C0041F480615960596821F47C1159605968AB
:100D9C0041F4E8115960196841F0807119601368C9
:100DAC009B01FCD55368074923F003035360536838
:100DBC0043F0020353604B6803F00C03082BFAD189
:100DCC00C3E700BF001002400000FFF800ED00E098
:100DDC0000200240014B1868704700BF70000020D3
:100DEC00024B0146186800F04FB800BF700000209D
:100DFC0038B50546002943D051F8043C0C1F002B94
:100E0C00B8BFE41800F0C4FB1E4A1368104633B98F
:100E1C00636014602846BDE8384000F0BABBA342BA
:100E2C000BD921686218934201BF1A685B6852188B
:100E3C00226063600460EDE713465A680AB1A2426F
:100E4C00FAD919685818A0420BD1206801445818D7
:100E5C0082421960DED110685268014419605A60F0
:100E6C00D8E702D90C232B60D4E7206821188A42DA
:100E7C0001BF116852680918216062605C60C9E7A3
:100E8C0038BD00BF0001002070B5CD1C25F0030556
:100E9C0008350C2D38BF0C25002D064601DBA94268
:100EAC0003D90C233360002070BD00F071FB214A84
:100EBC001468214691B9204C23681BB9304600F0C8
:100ECC00B9F820602946304600F0B4F8431C24D110
:100EDC000C233046336000F05CFBE4E70B685B1BD3
:100EEC0018D40B2B0FD90B60CC18CD50304600F01A
:100EFC0050FB04F10B00231D20F00700C31AD3D0C4
:100F0C005A42E250D0E74B688C4216BF63601360C4
:100F1C000C46EBE70C464968CCE7C41C24F00304F0
:100F2C00A04205D0211A304600F084F80130CFD011
:100F3C002560DBE700010020040100200FB40A4B00
:100F4C0013B51C6824B1A36913B9204600F032FA1A
:100F5C0005AB049AA1682046019300F043FB02B054
:100F6C00BDE8104004B070477000002070B50E460C
:100F7C00054618B183690BB900F01CFAAB69AC6873
:100F8C0013B9284600F016FA234B9C4217D16C6813
:100F9C00A3891B071DD52369DBB1013EA36816F895
:100FAC00011F013BA360E9B9002B2EDA22460A216E
:100FBC00284600F04FF8013011D00A2011E0174BF1
:100FCC009C4201D1AC68E3E7154B9C4208BFEC682E
:100FDC00DEE72146284600F08FF80028DDD04FF0E0
:100FEC00FF3070BD002B04DAA2699A4206DC0A2994
:100FFC0004D023685A1C22601970CFE72246284679
:10100C0000F028F80130C9D1E9E70A2023685A1CFE
:10101C0022601870E5E700BF181D0008381D000895
:10102C00F81C0008024B01461868FFF79FBF00BF71
:10103C007000002038B50023054C05460846236097
:10104C00FFF782FB431C02D1236803B12B6038BD30
:10105C0010010020F8B50E461446054618B18369F8
:10106C000BB900F0A7F9214B9C422AD16C68A369FB
:10107C00A360A3891A072ED5236963B3236920685B
:10108C00F6B2C01A63693746834204DC214628460F
:10109C0000F026F928BBA3680130013BA36023684C
:1010AC005A1C22601E706369834204D0A389DB073B
:1010BC0019D50A2E17D12146284600F011F990B106
:1010CC000FE00B4B9C4201D1AC68D0E7094B9C4222
:1010DC0008BFEC68CBE72146284600F00DF8002845
:1010EC00CCD04FF0FF373846F8BD00BF181D0008B4
:1010FC00381D0008F81C0008324B70B51D680646F8
:10110C000C4625B1AB6913B9284600F053F92E4BA8
:10111C009C420FD16C68B4F90C309AB215072CD4E0
:10112C00D00611D40922326043F04003A3814FF062
:10113C00FF303EE0254B9C4201D1AC68EBE7244BE1
:10114C009C4208BFEC68E6E7510712D5616B41B1D0
:10115C0004F14403994202D03046FFF749FE0023C4
:10116C006363A38923F02403A381002363602369B1
:10117C002360A38943F00803A38123694BB9A38996
:10118C0003F42073B3F5007F03D02146304600F002
:10119C00BFF9A28912F001030CD00023A36063698C
:1011AC005B42A361236953B9B4F90C3013F080008E
:1011BC00BAD170BD920758BF6369A360F2E70020F3
:1011CC00F7E700BF70000020181D0008381D00084C
:1011DC00F81C00088A892DE9F041054610070C46D9
:1011EC0058D44B68002B05DC0B6C002B02DC002068
:1011FC00BDE8F081E66A002EF9D0002312F480528B
:10120C002F68216A2B6032D0606DA3895A0705D5EF
:10121C006368C01A636B0BB1236CC01A00230246BF
:10122C00E66A216A2846B047431CA38906D129687F
:10123C001D2948D8294ACA40D60744D500226260E5
:10124C002269D904226004D5421C01D12B6803B950
:10125C006065616B2F600029C9D004F14403994289
:10126C0002D02846FFF7C4FD00206063C0E70123CD
:10127C002846B047411CC8D12B68002BC5D01D2B6C
:10128C0001D0162B01D12F60B1E7A38943F04003A5
:10129C00A381ADE70F69002FA9D0930718BF0023D6
:1012AC000E6808BF4B69A6EB07080F608B60B8F19E
:1012BC00000F9CDD43463A46216A2846A66AB04791
:1012CC00002806DCA38943F04003A3814FF0FF30D4
:1012DC008EE70744A8EB0008E9E700BF01004020B7
:1012EC0038B50B6905460C46DBB118B183690BB9EF
:1012FC0000F060F80C4B9C4209D16C68B4F90C30CE
:10130C007BB121462846BDE83840FFF763BF074B49
:10131C009C4201D1AC68F1E7054B9C4208BFEC68DC
:10132C00ECE7002038BD00BF181D0008381D000870
:10133C00F81C0008002310B50446C0E90033836094
:10134C0081814366C281C0E9043383611946082256
:10135C005C30FEF719FF054B24626362044BA362F9
:10136C00044BE362044B236310BD00BF291B000830
:10137C004B1B0008831B0008A71B0008014900F049
:10138C0085B800BFED12000870B568254A1E55439C
:10139C000E4605F17401FFF777FD044640B10021BC
:1013AC00C0E900160C30A06005F16802FEF7ECFEF7
:1013BC00204670BD836910B5044633BBC0E91233B7
:1013CC000365124B124A1B688262984204BF0123C8
:1013DC00836100F01FF86060204600F01BF8A060ED
:1013EC00204600F017F80022E06004216068FFF747
:1013FC00A1FF01220921A068FFF79CFF0222122104
:10140C00E068FFF797FF0123A36110BDB41C00082F
:10141C0089130008F8B51B4B07461E68B36913B94E
:10142C003046FFF7C7FF4836D6E90134013B03D5F8
:10143C00336833B13668F7E7B4F90C506DB16834E2
:10144C00F4E704213846FFF79FFF30600028F1D104
:10145C000C2304463B602046F8BD0B4B6566C4E983
:10146C000055A560C4E90335C4E905550822294691
:10147C0004F15C00FEF788FEC4E90D55C4E9125571
:10148C00E9E700BFB41C00080100FFFF2DE9F84399
:10149C0080468946002600F1480414B93046BDE860
:1014AC00F883D4E90175013F01D52468F5E7AB89D0
:1014BC00012B07D9B5F90E30013303D0294640462C
:1014CC00C84706436835EEE770B50E46B1F90E1005
:1014DC0096B0002914461D4607DA00232B60B38909
:1014EC001A0610D44FF480630EE06A4600F07CFBC1
:1014FC000028F2DB019A02F47042A2F500535A4222
:10150C005A412A60EEE740230020236016B070BDDC
:10151C008B8973B59D0706460C4607D504F1470326
:10152C00236023610123636102B070BD01AB6A4685
:10153C00FFF7CAFF009905463046FFF7A5FC48B9EE
:10154C00B4F90C309A05EFD423F0030343F00203F3
:10155C00A381E3E70D4BB362A389206043F08003C2
:10156C00A381009B20616361019B5BB1B4F90E10F8
:10157C00304600F04BFB28B1A38923F0030343F062
:10158C000103A381A3891D43A581CDE7891300081D
:10159C0070477047936810B4013B002B936007DAD7
:1015AC009469A34201DB0A2902D110BCFFF752BD9A
:1015BC001368581C10601970084610BC7047F8B5B9
:1015CC0006460F461446D518AC4201D1002007E060
:1015DC003A4614F8011B3046FFF7DCFF431CF3D1ED
:1015EC00F8BD00002DE9F04F9DB00C461746039353
:1015FC00064618B183690BB9FFF7DCFE7B4B9C42A6
:10160C0057D17468A38918075DD52369002B5AD06C
:10161C000023099320238DF8293030234FF0010B40
:10162C008DF82A30B846454615F8013B0BB1252BF1
:10163C0054D1B8EB070A0BD053463A4621463046F4
:10164C00FFF7BDFF013000F0C280099B53440993A2
:10165C0098F80030002B00F0BA8000234FF0FF32D6
:10166C00CDE90523049307938DF853301A93A846BC
:10167C00052218F8011B5E4800F0EAFA049B78BBBF
:10168C00D90644BF20228DF853201A0744BF2B22C1
:10169C008DF853202A782A2A2AD0A84600200A2519
:1016AC00079A414611F8013B303B092B69D960B3CD
:1016BC0024E0504B9C4201D1B468A3E74E4B9C42B2
:1016CC0008BFF4689EE721463046FFF715FD002859
:1016DC009ED04FF0FF301DB0BDE8F08FA846A2E7BA
:1016EC00434A4546801A0BFA00F018430490BEE7B3
:1016FC00039A111D12680391002A01DB079204E082
:10170C00524243F002030792049398F800302E2BB8
:10171C000ED198F801302A2B38D1039B08F102081E
:10172C001A1D1B680392002BB8BF4FF0FF330593B3
:10173C00324D032298F80010284600F089FA40B187
:10174C004023401B03FA00F0049B08F101080343FB
:10175C00049398F800100622294808F101078DF827
:10176C00281000F075FA002837D0264B1BBB039BC2
:10177C00073323F0070308330393099B4B44099366
:10178C0050E705FB0232012088468AE700230A2530
:10179C00194608F101080593404610F8012B303A20
:1017AC00092A03D9002BC3D00591C1E705FB012100
:1017BC0001238046F0E703AB00932246124B04A9A9
:1017CC003046AFF30080B0F1FF3F8146D5D1A389FD
:1017DC005B063FF57EAF09987DE703AB009322468D
:1017EC00094B04A9304600F087F8ECE7181D0008F7
:1017FC00581D0008381D0008F81C00085E1D000864
:10180C00621D000800000000CB1500082DE9F04710
:10181C0091461F468A680B6906469342B8BF134629
:10182C00C9F8003091F843200C46DDF8208012B145
:10183C000133C9F800302368990642BFD9F800304B
:10184C000233C9F80030256815F0060507D104F1FC
:10185C00190AE368D9F800209B1AAB4229DC94F8EA
:10186C0043302268003318BF012392062ED404F1B2
:10187C00430239463046C047013021D02368E56821
:10188C0003F00603042B18BF0025D9F800204FF0F5
:10189C00000908BFAD1AA368226908BF25EAE575DF
:1018AC009342C4BF9B1AED181A344D451AD100202F
:1018BC0008E00123524639463046C047013003D177
:1018CC004FF0FF30BDE8F0870135C2E73020E1185A
:1018DC0081F843005A1C94F845102244023382F8D4
:1018EC004310C4E70123224639463046C047013035
:1018FC00E6D009F10109D8E72DE9F04301F1430CD9
:10190C000C46097E85B06E291746064698460C9AF9
:10191C0000F0B38022D8632936D00AD8002900F011
:10192C00B980582900F0838004F1420584F84210F4
:10193C0032E0642901D06929F6D1206813680506C4
:10194C0003F104012AD51B681160002B03DA2D2248
:10195C005B4284F843206F480A2239E0732900F077
:10196C009D8008D86F2920D07029DDD1236843F0E1
:10197C002003236003E0752917D07829D4D178236C
:10198C00654884F8453055E0136804F14205191D8B
:10199C001B68116084F8423001238CE01B6810F046
:1019AC00400F116018BF1BB2CFE713682568181DD4
:1019BC001060280601D51B6802E06806FBD51B8861
:1019CC006F2914BF0A2208225248002184F84310C0
:1019DC006568002DA560C0F29580216821F0040196
:1019EC002160002B3DD1002D40F08E806546082AE9
:1019FC000BD12368DB0708D5236962689A42DEBFE6
:101A0C00302305F8013C05F1FF35ACEB05032361F0
:101A1C00CDF800803B4603AA21463046FFF7F6FE80
:101A2C0001304DD14FF0FF3005B0BDE8F08339489F
:101A3C0084F84510136821681D1D1B6815600A0683
:101A4C000BD5CA0744BF41F0200121601BB92268A5
:101A5C0022F0200222601022B7E74D0648BF9BB24D
:101A6C00EFE76546B3FBF2F102FB1133C35C05F8FB
:101A7C00013D0B460029F5D1B9E713682568181DFF
:101A8C006169106028061B6801D5196002E06A06BE
:101A9C00FBD51980002365462361B9E71368191D2E
:101AAC0011601D6862680021284600F0D1F808B169
:101ABC00401B606063682361002384F84330A7E710
:101ACC0023692A4639463046C0470130AAD02368DC
:101ADC009B0713D4E068039B9842B8BF1846A3E752
:101AEC0001234A4639463046C04701309AD0013569
:101AFC00E368039A9B1AAB42F2DCEBE7002504F196
:101B0C001909F5E7002BACD1037804F1420584F8F0
:101B1C0042306CE7691D00087A1D000810B50C46B0
:101B2C00B1F90E1000F0A2F80028ABBF636DA389C9
:101B3C001B1823F48053ACBF6365A38110BD2DE942
:101B4C00F0411F468B890546DB050C46164605D52C
:101B5C0002230022B1F90E1000F068F8A389324676
:101B6C0023F48053A381B4F90E103B462846BDE8FC
:101B7C00F04100F017B810B50C46B1F90E1000F09A
:101B8C0055F8431CA38915BF606523F4805343F4B7
:101B9C008053A38118BFA38110BDB1F90E1000F0C2
:101BAC0013B8000038B50546084611460022054C0E
:101BBC0022601A46FEF7BAFD431C02D1236803B11A
:101BCC002B6038BD1001002038B50023054C0546AC
:101BDC0008462360FEF7D6FD431C02D1236803B1EF
:101BEC002B6038BD1001002038B50023064C05468B
:101BFC00084611462360FEF7C9FD431C02D1236839
:101C0C0003B12B6038BD00BF1001002038B5002394
:101C1C00054C054608462360FEF7BEFD431C02D169
:101C2C00236803B12B6038BD1001002038B5054680
:101C3C00084611460022054C22601A46FEF7AEFDFE
:101C4C00431C02D1236803B12B6038BD1001002066
:101C5C0010B5C9B202449042034601D1002303E0FF
:101C6C001C7801308C42F6D1184610BD38B50546AB
:101C7C00084611460022054C22601A46FEF748FD24
:101C8C00431C02D1236803B12B6038BD1001002026
:101C9C00F8B500BFF8BC08BC9E467047F8B500BF4D
:081CAC00F8BC08BC9E4670471D
:101CB400740000206462675F756172745F706172A2
:101CC4007365723A2025730A0000000073746D3343
:101CD4003266313033202620535049202620545276
:101CE4004143455F4C4556454C5F4932432E2E2EA9
:101CF40000000000000000000000000000000000E0
:101D040000000000000000000000000000000000CF
:101D140000000000000000000000000000000000BF
:101D240000000000000000000000000000000000AF
:101D3400000000000000000000000000000000009F
:101D4400000000000000000000000000000000008F
:101D540000000000232D302B2000686C4C006566C9
:101D640067454647003031323334353637383941E8
:101D740042434445460030313233343536373839FE
:081D8400616263646566000002
:041D8C003101000819
:041D90000D01000839
:101D9400000000000102030401020304060708090D
:101DA400020406080038014000C2010000000000DF
:101DB40000000C000000000000000000010A000008
:101DC400000000000001000000000000000000000E
:101DD40000000000000000000001000000000000FE
:101DE40000000000000000000100000000000000EE
:101DF40000000000010203040607080900A24A04C7
:101E04007400002000000000181D0008381D0008A0
:101E1400F81C0008000000000000000000000000A2
:101E240000000000000000000000000000000000AE
:101E3400000000000000000000000000000000009E
:101E4400000000000000000000000000000000008E
:101E5400000000000000000000000000000000007E
:041E6400000000007A
:04000005080001A549
:00000001FF
